:100000008831C62A00000B00BC342034C3342034AD
:10001000CA342034D13420342300CA01CA08031D55
:1000200028284A0DF700F70DFC30F7057708B43E95
:100030008400203085000318850A013080070131D3
:100040000030803D0131803D0131803DCA0A0E28DB
:100050000C302200D6000030D700883120008E2BD3
:1000600008002300CA014A08013C031C4128031070
:100070004A0D703E84008501800101318001CA0A69
:100080003328200008007B08003A03194B28013A66
:1000900003194E2852282200BC1753282200BC13F3
:1000A000532820002200FB08031974280130200087
:1000B00026072300CA0000302000273D2300CB0084
:1000C0004A080C3C031D6D28CB08031D6D28200039
:1000D000A701A6013120722823002000A60A0319D7
:1000E000A70A3120741022004330C1000030C20042
:1000F000883120008E2B080023005C08E001DF011E
:10010000DE01DD005E08E0005D08DF00DD01DE01EC
:100110005B08E501E401E301E2006408FA0063081A
:10012000F9006208F800F7017708DD046208DE04D0
:100130006308DF046408E0045A08F700F801F901D5
:10014000FA015A085D04F70078085E04F80079089F
:100150005F04F9007A086004FA0020000800023009
:100160002300D902031CC1282130850029308400D6
:1001700000080319C128BF28BD28BE280000800B35
:10018000BC28200008002300D401D301D408031D9B
:10019000402953082A3C031C4029530DF900540DF3
:1001A000FA00F90DFA0DFC30F9057908083E8400D3
:1001B00020307A3D85000008D800013FD900023F79
:1001C000DA00033FDB005808D500530DF900540D49
:1001D000FA00F90DFA0DFC30F9057908083E8400A3
:1001E00020307A3D85000008D800013FD900023F49
:1001F000DA00033FDB005908D8005A08D9005B0831
:10020000DA00DB015808D600530DF900540DFA004E
:10021000F90DFA0DFC30F9057908083E840020300C
:100220007A3D85000008D800013FD900023FDA007E
:10023000033FDB005A08D8005B08D900DA01DB0174
:100240005808D70024001108230057082400910003
:10025000140C031C282911082300560824009100BF
:10026000140C031C302911082300550824009100A8
:10027000140C031C38292300D30A0319D40AC628F6
:100280000230D800FA30D9002000AF202300D80B6C
:100290004229200008002300D20152082A3C031CF6
:1002A0006729520DF700F70DFC30F7057708083E77
:1002B0008400203085000318850A4E0880004F080E
:1002C000813F5008823F5108833FD20A4D292000C8
:1002D000C32008002300D208031D8829520DF7000F
:1002E000F70DFC30F7057708B43E84002030850018
:1002F0000318850A0008F70001310008F8000131F1
:100300000008F90001310008FA003D318C298C29E0
:10031000F701F801F901FA01200008002300530851
:10032000FA01F7007A08031D9A29F708200003193B
:10033000AD2923007A08031DA3290130770220008C
:100340000319BC2923007A08031DAC290230770267
:1003500020000319CB292300D9292300FA015208D0
:10036000FF3CD4000030D5007A08D53B5208D600B7
:10037000D701D901D801D9292300FA015208FF3C3D
:10038000D6000030D7007A08D73B5208D800D901F0
:10039000D501D401D9292300FA015208FF3CD80025
:1003A0000030D9007A08D93B5208D400D501D701D2
:1003B000D6015408DA005608DB005808DC0020009B
:1003C0007C2008002300D208031DF929520DF700F4
:1003D000F70DFC30F7057708B43E84002030850027
:1003E0000318850A8001013180010131800101314A
:1003F00080012000080010302300D600F701FA0128
:10040000D30CD20C031C0A2A5408F7070318FA0A63
:100410005508FA07FA0CF70CF90CF80CD60B002A61
:1004200020000800F801F901F701FA01230056083D
:10043000031D1D2A55080319372A1030D700031051
:10044000D30DD40DF70DFA0D56087A02031D2A2A92
:1004500055087702031C332A5508F702031CFA03D8
:100460005608FA020314F80DF90DD70B1F2A2000C5
:10047000080025082300D300200024082300D20010
:10048000200023082300D100200022082300D000F0
:100490004130D700C630D6004E30D5006D30D40084
:1004A0002030DC00D801D901DA01DB015308FA0061
:1004B0005208F9005108F8005008F7000310771CA3
:1004C0006F2A5408D80755080318550FD90756083E
:1004D0000318560FDA0757080318570FDB07DB0C12
:1004E000DA0CD90CD80CFA0CF90CF80CF70CDC0B64
:1004F0005E2A7A08D3007908D2007808D1007708FC
:10050000D000393050072000A20030302300513D88
:100510002000A30000302300523D2000A400003042
:100520002300533D2000A5002408F7002508F8000B
:10053000F901FA0125082300D2007708D1005208FA
:10054000D4005108D3007F30D600FF30D500200002
:1005500012227708F8007A08F90008002A302300F0
:10056000DA00DA080319F42A5A0DF700F70DFC3007
:10057000F7057708083EF8002030FA000318FA0A59
:100580007808DB007A08DC0001305A02F700F70D2A
:10059000F70DFC30F7057708083E84002030850011
:1005A0000318850A0008F70001310008F80001313E
:1005B0000008F90001310008FA003D317A08E00036
:1005C0007908DF007808DE007708DD005C08850028
:1005D0005B0884005D0880005E08813F5F08823F01
:1005E0006008833FDA03B12A59082000AB002300DA
:1005F00058082000AA00230057082000A900230063
:1006000056082000A80008002300D20120006A211B
:100610007A082300D5007908D4007808D300770839
:10062000D200D508031D272BD408031D272B220039
:100630003B0823005302031C722B031D272B520877
:1006400022003A02031C262B2300722B2300F10800
:10065000031D2E2B7008053C0318302BF101F0010F
:100660007108D4007008D300D6010630D5002000F0
:10067000122277082300D2007A08D300D308031D82
:10068000512B5208023C031C512B5108D900500831
:10069000D8004F08D7004E08D6002000AE22692BA4
:1006A0002300DA01DB01DC0120007C207A08230032
:1006B000D5007908D4007808D3007708D20055080F
:1006C000D9005408D8005308D7005208D60020009B
:1006D000AE22C320F00A0319F10A2300D201200040
:1006E000E2212300200008007B08003A03197C2B3C
:1006F000013A03197F2B832B2200BC17842B220085
:10070000BC13842B20002200741C882BF41C8D2F1A
:1007100020002608F7002708FA007A08031D932B0B
:10072000F7080319E12B7A08031D9A2B0130770291
:100730000319FE2B7A08031DA12B0230770203193F
:100740001B2C7A08031DA82B033077020319382CC1
:100750007A08031DAF2B043077020319802C7A0826
:10076000031DB62B053077020319172D7A08031DD8
:10077000BD2B063077020319682D7A08031DC42BA0
:100780000730770203191D2E7A08031DCB2B083082
:10079000770203193A2E7A08031DD22B093077020B
:1007A0000319572E7A08031DD92B0A307702031933
:1007B000872E7A08031DE02B0B3077020319052FD3
:1007C0008C2FFF302300DA00DB01DC0120007C20CD
:1007D0007A082300CD007908CC007808CB00770890
:1007E000CA004D08D1004C08D0004B08CF004A0881
:1007F000CE0020004B217414F4108C2F2300DA015A
:10080000FF30DB00DC0120007C207A082300CD00D3
:100810007908CC007808CB007708CA004D08D100D1
:100820004C08D0004B08CF004A08CE0020004B21D6
:100830007414F4108C2F2300DA01DB01FF30DC008C
:1008400020007C207A082300CD007908CC007808AD
:10085000CB007708CA004D08D1004C08D0004B08E7
:10086000CF004A08CE0020004B217414F4108C2FC6
:10087000F4147108023C031C7A2C2300D2012000DE
:100880006A217A082300CD007908CC007808CB00D3
:100890007708CA00CD08031D572CCC08031D572C20
:1008A000CB08031D572C4A08C83C0318782C710844
:1008B000D3007008D20020008E217A082300CD00DA
:1008C0007908CC007808CB007708CA004D08D10021
:1008D0004C08D0004B08CF004A08CE0020004B2126
:1008E000F00A0319F10A2300D2012000E2212300BB
:1008F0007D2C2000F101F0012300741420008C2FC6
:10090000F4147108023C031C112D2300D2012000B5
:100910006A217A082300D3007908D2007808D10030
:100920007708D000D308031DA82CD208031DA82CDB
:1009300022003B0823005102031C0F2D031DA82C8D
:10094000500822003A02031CA72C23000F2D23007D
:10095000CB01CA01CB08031D052D4A082A3C031C04
:10096000052D4B08D3004A08D200D5011430D4001D
:100970002000FB2179082300D1007808D0007108FD
:10098000D3007008D200D5010A30D4002000FB212A
:100990007908FA0078082300D0077908D13D51087A
:1009A000D4005008D3000330D600D5012000122215
:1009B00077082300D0007A08D100D3005008D20075
:1009C00020008E217A082300CF007908CE00780815
:1009D000CD007708CC004A0DF9004B0DFA00F90D57
:1009E000FA0DFC30F9057908083E840020307A3D84
:1009F00085004C0880004D08813F4E08823F4F081B
:100A0000833FCA0A0319CB0AAA2C2000C320F00A8C
:100A10000319F10A2300D2012000E2212300142D42
:100A20002000F101F0012300741420008C2FF41435
:100A30007108023C031C622D2300D20120006A21B0
:100A40007A082300CD007908CC007808CB0077081D
:100A5000CA00CD08031D3F2DCC08031D3F2D2200E9
:100A60003B0823004B02031C602D031D3F2D4A0849
:100A700022003A02031C3E2D2300602D2300710842
:100A8000D3007008D20020008E217A082300CD0008
:100A90007908CC007808CB007708CA004D08D1004F
:100AA0004C08D0004B08CF004A08CE0020004B2154
:100AB000F00A0319F10A2300D2012000E2212300E9
:100AC000652D2000F101F0012300741420008C2F0B
:100AD000F4142300D20120006A217A082300CD00FB
:100AE0007908CC007808CB007708CA0003102200F0
:100AF0003A0DF9003B0DFA007908F8002300CD0803
:100B0000031D8F2DCC08031D8F2D7A084B02031C6B
:100B10001A2E031D8F2D4A08780203181A2ECF01B2
:100B2000CE01CD01CC01CB012A30CA00CA08031D79
:100B30009C2DCB080319EA2D4A0DF9004B0DFA0044
:100B4000F90DFA0DFC30F9057908083EF80020305F
:100B5000FA3D7808D0007A08D10001304A02D2006C
:100B600000304B3BD300520DF900530DFA00F90D44
:100B7000FA0DFC30F9057908083E840020307A3DF2
:100B800085000008F70001310008F8000131000875
:100B9000F90001310008FA003D317A08D5007908E2
:100BA000D4007808D3007708D20051088500500897
:100BB000840052088000013153088000013154083C
:100BC00080000131550880003D314A080319CB03EC
:100BD000CA03962DCB01CA01CB08031D052E4A0876
:100BE000023C031C052E4E08CF004D08CE004C08D9
:100BF000CD00CC012000392278082300CC047908EC
:100C0000CD04CA0A0319CB0AEC2D4F082000AB0013
:100C100023004E082000AA0023004D082000A90050
:100C200023004C082000A800C3202300D20120008C
:100C3000E2212300741420008C2FF414FF302300D1
:100C4000DA00DB01DC0120007C207A082300CD00E3
:100C50007908CC007808CB007708CA004D08D1008D
:100C60004C08D0004B08CF004A08CE0020000423D7
:100C700074148C2FF4142300DA01FF30DB00DC0045
:100C800020007C207A082300CD007908CC00780869
:100C9000CB007708CA004D08D1004C08D0004B08A3
:100CA000CF004A08CE002000042374148C2FF414C3
:100CB000392279082300CB007808CA004B08D400F9
:100CC0004A08D3000230D600FF30D500200012229F
:100CD00077082300CA007A08CB00D3004A08D20064
:100CE00020008E217A082300CD007908CC007808F6
:100CF000CB007708CA004D08D1004C08D0004B0843
:100D0000CF004A08CE002000042374148C2FF41462
:100D10002300DA01DB01FF30DC0020007C207A08B0
:100D20002300CD007908CC007808CB007708CA00F2
:100D30004D08D1004C08D0004B08CF004A08CE0027
:100D4000D20120006A217A082300D5007908D40056
:100D50007808D3007708D200D508031DC22ED40826
:100D6000031DC22E22003B0823005302031C022F46
:100D7000031DC22E520822003A02031CC12E23007A
:100D8000022F2300F108031DC92E7008013C03182F
:100D9000CB2EF101F00170080139D200D301D20845
:100DA000031DE12ED308031DE12E5108D900500880
:100DB000D8004F08D7004E08D6002000AE22F92EEA
:100DC0002300DA01DB01DC0120007C207A0823000B
:100DD000D5007908D4007808D3007708D2005508E8
:100DE000D9005408D8005308D7005208D600200074
:100DF000AE22C320F00A0319F10A2300D201200019
:100E0000E2212300741420008C2FF4142300DA0153
:100E1000DB01FF30DC0020007C207A082300CD00BD
:100E20007908CC007808CB007708CA004D08D100BB
:100E30004C08D0004B08CF004A08CE00D201200059
:100E40006A217A082300D5007908D4007808D300F5
:100E50007708D200D508031D402FD408031D402F6A
:100E600022003B0823005302031C8A2F031D402F3E
:100E7000520822003A02031C3F2F23008A2F23002E
:100E8000F108031D472F7008023C0318492FF10198
:100E9000F0017108D4007008D300D6010330D500EA
:100EA0002000122277082300D2007A08D300D2084B
:100EB000031D692FD308031D692F5108D90050085D
:100EC000D8004F08D7004E08D6002000AE22812F50
:100ED0002300DA01DB01DC0120007C207A082300FA
:100EE000D5007908D4007808D3007708D2005508D7
:100EF000D9005408D8005308D7005208D600200063
:100F0000AE22C320F00A0319F10A2300D201200007
:100F1000E22123007414200022007430C800033042
:100F2000C900883120008E2B0800213085001B303D
:100F3000840000080319A92F0A30F800F701F70B05
:100F40009F2FF80B9E2F5F30F700F70BA52F800B1C
:100F50009C2F08002200DB015B082A3C031CC52FE4
:100F60005B0DF700F70DFC30F7057708083E8400AD
:100F7000203085000318850A80010131800101318C
:100F8000800101318001DB0AAC2F2000C3208831B1
:100F9000002B2200D117DB01DB08031DE42F5B0DC2
:100FA000F700F70DFC30F7057708B43E84002030D9
:100FB00085000318850A800101318001013180011B
:100FC00001318001DB0ACC2FD113883120001E2B88
:10100000F508031D2E2821000C1420000C180A28B6
:101010007514F60121008C1420008C181128F51489
:10102000F60121000C1520000C1918287515F60181
:1010300021008C1520008C191F28F515F6012100C0
:101040000C1620000C1A26287516F60121008C16A5
:1010500020008C1A2D28F516F6017028751C3928E9
:1010600021000C1420000C183728F60A3928F60144
:101070007510F51C442821008C1420008C1842287F
:10108000F60A4428F601F510751D4F2821000C15AD
:1010900020000C194D28F60A4F28F6017511F51D90
:1010A0005A2821008C1520008C195828F60A5A2835
:1010B000F601F511751E652821000C1620000C1A8A
:1010C0006328F60A6528F6017512F51E70282100BE
:1010D0008C1620008C1A6E28F60A7028F601F5127C
:1010E0007608053C0318BD2A751CCE2821000C1477
:1010F00020000C187F282200CA1720007628220022
:10110000CA137419942821008C1322008C137415AF
:1011100064302300D90080312000AF208831803135
:10112000C3208831CD28220021008C1322008C1787
:1011300074110B138B138B1B9A2827001310C830C4
:101140002300D90080312000AF2088318B15270083
:10115000111412106300000011102200CA172100A0
:101160008C1322008C13741532302300CB00803195
:101170002000952788318031C32088310230230038
:10118000CA009630CB00803120009527883123009B
:10119000CA0BC1282200CA132000F501F51CFD2846
:1011A00021008C1420008C18D9282200CA17200096
:1011B000D0282200CA130130200026072300CA00CD
:1011C00000302000273D2300CB00CB08031DEC2876
:1011D0004A080B3C0318F428803120003120883164
:1011E000A701A601FB28230080312000312088318F
:1011F000A60A0319A70A7410F501751D21292100FB
:101200000C1520000C1908292200CA172000FF28FD
:101210002200CA132000A608031D1829A708031DD1
:101220001829803131208831A7010B30A6001F29F1
:1012300080313120883126080319A703A6037410D2
:10124000F501F51D3E2921008C1520008C192C2953
:101250002200CA17200023292200CA133B080B3C96
:10126000031C3C29031D38293A08B73C031C3C29C0
:101270003230BA070030BB3DF5012000751E5829F9
:1012800021000C1620000C1A49292200CA17200040
:1012900040292200CA13BB08031D52293A08313CD9
:1012A000031856293230BA020030BB3BF50120004A
:1012B000F51EBD2A21008C1620008C1A63292200FD
:1012C000CA1720005A292200CA13FB08031D132A3B
:1012D0007414F4102300DA01FF30DB00DC018031EC
:1012E00020007C2088317A082300CD007908CC00CA
:1012F0007808CB007708CA004D08D1004C08D00010
:101300004B08CF004A08CE00803120004B218831A5
:1013100002302300CA00FA30CB008031200095272C
:1013200088312300CA0B8B29DA01DB01DC01803113
:1013300020007C2088317A082300CD007908CC0079
:101340007808CB007708CA004D08D1004C08D000BF
:101350004B08CF004A08CE00803120004B21883155
:1013600002302300CA00FA30CB00803120009527DC
:1013700088312300CA0BB329DA01FF30DB00DC011E
:10138000803120007C2088317A082300CD00790844
:10139000CC007808CB007708CA004D08D1004C0873
:1013A000D0004B08CF004A08CE00803120004B21EE
:1013B000883102302300CA00FA30CB00803120008F
:1013C000952788312300CA0BDC29DA01DB01DC0117
:1013D000803120007C2088317A082300CD007908F4
:1013E000CC007808CB007708CA004D08D1004C0823
:1013F000D0004B08CF004A08CE00803120004B219E
:10140000883102302300CA00FA30CB00803120003E
:10141000952788312300CA0B042A0130FB00741081
:10142000F414BB2A22007414F410FF302300DA00F5
:10143000DB01DC01803120007C2088317A08230028
:10144000CD007908CC007808CB007708CA004D0899
:10145000D1004C08D0004B08CF004A08CE008031A4
:1014600020004B21883102302300CA00FA30CB0023
:1014700080312000952788312300CA0B362ADA01F3
:10148000DB01DC01803120007C2088317A082300D8
:10149000CD007908CC007808CB007708CA004D0849
:1014A000D1004C08D0004B08CF004A08CE00803154
:1014B00020004B21883102302300CA00FA30CB00D3
:1014C00080312000952788312300CA0B5E2AFF3027
:1014D000DA00DB01DC01803120007C2088317A08D1
:1014E0002300CD007908CC007808CB007708CA002B
:1014F0004D08D1004C08D0004B08CF004A08CE0060
:10150000803120004B21883102302300CA00FA309C
:10151000CB0080312000952788312300CA0B872A11
:10152000DA01DB01DC01803120007C2088317A087F
:101530002300CD007908CC007808CB007708CA00DA
:101540004D08D1004C08D0004B08CF004A08CE000F
:10155000803120004B21883102302300CA00FA304C
:10156000CB0080312000952788312300CA0BAF2A99
:10157000FB017410F414F501200000302200CF00AC
:101580000830D000883120008E2B0800F030210078
:10159000990023009F151F168A309B0000309C0085
:1015A000A6309E0090309D008C018D018E0122009E
:1015B000920191012000A001A101F03021009900C9
:1015C0007F3024008C002100951324008D0122001F
:1015D0009D111D169D169C101C11240095122100B2
:1015E0008D120E168D13203024009500403094008B
:1015F00021008C1322008C13741580312000AA2F37
:1016000088318031C320883164302300CB008031A1
:10161000200095278831FB01A7010430A600F501C1
:101620002200B901B8017410F410BB013230BA00C5
:1016300080312000312088318031C92F883122004B
:10164000BC017530BE003030BD00C0010230BF00AB
:101650004330C1000030C200C301C5010A30C400DC
:10166000C701C6017430C8000330C900CA01CC01EB
:101670000A30CB00CE010130CD000030CF00083061
:10168000D000D101D3010130D200D501D4010C30FA
:10169000D6000030D700FC010530200098009901E9
:1016A0009601E0309700C0309600111003107C0DB9
:1016B000F700803103208831F9000130770780314D
:1016C00003208831FA007A08850079088400000830
:1016D000F900840A0008F700840A0008F800840A68
:1016E000800A0008FA00031D782B840A800A84030C
:1016F000840A00087802031D8F2B77087A02031DE5
:101700008F2B84038001840A8001840AF91B8F2BAC
:10171000013100088A003F31000882002000FC0AE5
:1017200004307C02031D562BFC011118502B952B05
:06173000FF30FC00630025
:020000040001F9
:04000E008439FF1E14
:00000001FF
;PIC16F1788
;CRC=6036  CREATED="07-Nov-14 19:10"
