:10000000803161290000C5014508053C031C1E28FC
:10001000450DF700F70DFC30F7057708083E840022
:10002000203085000318850A8001013180010131EB
:100030008001013180013D31C50A042880319229B7
:10004000CF01CE01CF08031D9C284E08053C031CA0
:100050009C284E0DF9004F0DFA00F90DFA0DFC30F9
:10006000F9057908083E840020307A3D85000008B3
:10007000D300013FD400023FD500033FD600530810
:10008000D2004E0DF9004F0DFA00F90DFA0DFC30BB
:10009000F9057908083E840020307A3D8500000883
:1000A000D300013FD400023FD500033FD6005408DF
:1000B000D3005508D4005608D500D6015308D10006
:1000C0004E0DF9004F0DFA00F90DFA0DFC30F9054F
:1000D0007908083E840020307A3D85000008D3006E
:1000E000013FD400023FD500033FD6005508D3009E
:1000F0005608D400D501D6015308D00024001108B9
:100100002000520824009100140C031C84281108BC
:100110002000500824009100140C031C8C281108A6
:100120002000510824009100140C031C9428200086
:10013000CE0A0319CF0A22280230D300FA30D400A5
:100140000230D402031CB1282030850034308400F2
:1001500000080319B128AF28AD28AE280000800B95
:10016000AC28D30B9E2808004F08D301D201D1013F
:10017000D0005108D3005008D200D001D1014E0860
:10018000D801D701D601D5005708FA005608F90062
:100190005508F800F7017708D0045508D10456082F
:1001A000D2045708D3044D08F700F801F901FA0109
:1001B0004D085004F70078085104F80079085204FB
:1001C000F9007A085304FA000800CD014D08053CF7
:1001D000031C00294D0DF700F70DFC30F7057708DB
:1001E000083E8400203085000318850A49088000F5
:1001F0004A08813F4B08823F4C08833FCD0AE628DE
:1002000020200800203085002630840000080319D3
:1002100016290A30F800F701F70B0C29F80B0B2907
:100220005F30F700F70B1229800B092908004608F8
:10023000FA01F7007A08031D2029F70803192F296E
:100240007A08031D27290130770203193D297A080E
:10025000031D2E290230770203194B295829FA0170
:100260004508FF3CC7000030C8007A08C83B450875
:10027000C900CA01CC01CB015829FA014508FF3C4D
:10028000C9000030CA007A08CA3B4508CB00CC013F
:10029000C801C7015829FA014508FF3CCB000030CE
:1002A000CC007A08CC3B4508C700C801CA01C90187
:1002B0004708CD004908CE004B08CF00B42080315C
:1002C000F529F03021009900240095124030940067
:1002D0002230950022009D129D111D1221008E12C8
:1002E0000E168E1123008C018D018E0122009201C9
:1002F00091012000A001A101F0302100990022000D
:100300009D111D169D169C101C1124009512210094
:100310008D120E168D1322302400950000309400AB
:10032000200003282020FF30CD00CE01CF01B420D3
:100330007A08C8007908C7007808C6007708C500A1
:100340007A08CC007908CB007808CA007708C90081
:10035000E5200430C500FA30C6000221C50BAB29E8
:10036000CD01FF30CE00CF01B4207A08C800790853
:10037000C7007808C6007708C5007A08CC0079085D
:10038000CB007808CA007708C900E5200430C50012
:10039000FA30C6000221C50BC829CD01CE01FF30BD
:1003A000CF00B4207A08C8007908C7007808C600D2
:1003B0007708C5007A08CC007908CB007808CA0015
:1003C0007708C900E5200430C500FA30C6000221D4
:1003D000C50BE529C401C3014408023C031C0D2AD6
:1003E0004408C6004308C50017297A08C8007908E0
:1003F000C7007808C6007708C5007A08CC007908DD
:10040000CB007808CA007708C900E520C830C600CC
:0E0410000221C30A0319C40AEC29EA29630079
:020000040001F9
:04000E008439FF1E14
:00000001FF
;PIC16F1788
;CRC=8054  CREATED="25-Sep-14 22:07"
