:1000000044EF09F0F76A140FF66E000EF7220900AC
:10001000F5501200C900D000D700DE000101276BA7
:10002000275311E12751040DF350036AB60FE96E0F
:10003000000E0320EA6E010EEE26000EEE22EE22E6
:10004000ED22272BEDD71C0E0001E36F000EE46FAD
:10005000EFEF09F012000101276B275101080DE3B2
:10006000D8902735036ABA0FE96E000E0320EA6EB6
:10007000EC6AED52EF6A272BF0D700011200C55150
:10008000000A03E0010A03E004D0C98F02D0C99F2F
:1000900000D0C5531AE0010EBE250101276F000EE6
:1000A0000001BF210101286F27510C0808E12853E6
:1000B00006E10001BF6BBE6BCEDF06D0010100017F
:1000C000BE2BD8B4BF2BC7DFC0917E0ECE6F000E03
:1000D000CF6FEFEF09F01200010139513D6B3C6B1E
:1000E0003B6B3A6F3BC13DF13C6F3A6B3B6B385118
:1000F000416B406B3F6F41C103F040C102F0016EA4
:10010000006A00503A133F513B1340513C13415198
:100110003D1337C100F0016A026A036A37513A1190
:10012000006E01503B11016E02503C11026E0350F3
:100130003D11036E00011200020E0101365F0CE357
:10014000010EEA6E360EE96EEF5006E003D000D0E5
:1001500000D00000EF2EFBD7000122EF01F00101DB
:10016000316B306B315368E130512A0865E330352B
:10017000026E3135036E02360336FC0E0216025053
:100180000A0FE96E000E0320EA6EEFCF35F1ECCFD7
:1001900036F1ECCF37F1ECCF38F135C132F13035F3
:1001A000026E3135036E02360336FC0E0216025023
:1001B0000A0FE96E000E0320EA6EEFCF35F1ECCFA7
:1001C00036F1ECCF37F1ECCF38F136C135F137C12C
:1001D00036F138C137F135C133F13035026E313582
:1001E000036E02360336FC0E021602500A0FE96E49
:1001F000000E0320EA6EEFCF35F1ECCF36F1ECCFF5
:1002000037F1ECCF38F137C135F138C136F135C1AE
:1002100034F1C95034C1C9FFC730FEE3C95033C1FE
:10022000C9FFC730FEE3C95032C1C9FFC730FEE382
:10023000302BD8B4312B96D7020E356FFA0E366FAD
:1002400000017AD70101352FF9D700011200010111
:100250002F6B2F512A0813E32F51040DF350036A1B
:100260000A0FE96E000E0320EA6E2BC1EFFF2CC1CE
:10027000ECFF2DC1ECFF2EC1ECFF2F2BEAD70001C4
:100280006EDF120001013769386B396B000124DF22
:1002900003C02AF102C029F101C028F100C027F1F2
:1002A00003C02EF102C02DF101C02CF100C02BF1D2
:1002B000CEDF1EEF06F00101376B3869396B0001A4
:1002C0000BDF03C02AF102C029F101C028F100C0F0
:1002D00027F103C02EF102C02DF101C02CF100C0A6
:1002E0002BF1B5DF23EF06F00101376B386B39696D
:1002F0000001F2DE03C02AF102C029F101C028F199
:1003000000C027F103C02EF102C02DF101C02CF175
:1003100000C02BF19CDF28EF06F001012F5313E101
:100320002F51040DF350036AB60FE96E000E03203F
:10033000EA6EEFCF00F0ECCF01F0ECCF02F0ECCFA3
:1003400003F005D004D0006A016A026A036A000162
:10035000120001013051036A006E035004E10052A3
:10036000000110E00101035005E1010E005C0001F5
:1003700017E00101035005E1020E005C00011EE0E0
:10038000010129D00101036A2F51FF08316F000ECE
:100390000354326F2FC133F1346B366B356B1BD086
:1003A0000101036A2F51FF08336F000E0354346FAD
:1003B0002FC135F1366B326B316B0DD00101036A01
:1003C0002F51FF08356F000E0354366F2FC131F1E6
:1003D000326B346B336B31C137F133C138F135C116
:1003E00039F1000179DE120001012F5312E12F5182
:1003F000040DF350036AB60FE96E000E0320EA6E97
:10040000EE52EE52EC6AED52EF6AED52EF6AED52A7
:10041000EF6A00011200BB51020837E301012F6BA4
:1004200000017BDF03C02AF102C029F101C028F1DD
:1004300000C027F101012A5307E1295305E12853A0
:1004400003E12751C8081FE2BBC030F1BAC02FF149
:1004500000017FDF03C02AF102C029F101C028F1A9
:1004600000C027F103C02EF102C02DF101C02CF114
:1004700000C02BF1ECDEBA2BD8B4BB2B01012F6BE3
:100480000001B2DF010104D00001BB6BBA6B0101B6
:1004900000012EEF06F001012F513103F3CF01F0DF
:1004A000F4CF00F03203F350002630513103F35003
:1004B0000020026E00011200016A026A006A036AEB
:1004C0000101335102E1325118E0100E346FD8901F
:1004D00030373137003603363351035C02E1325195
:1004E000005C07E33251005ED8A003063351035E7F
:1004F000D88001360236342FEAD700011200BB51F2
:100500000208D8A086D001012F6B000106DF03C0CE
:1005100030F102C02FF101C02EF100C02DF1010118
:10052000305310E12F530EE10001C75101012E5D40
:100530006EE308E12D510001C65DD8A002D0010193
:1005400066D00101286B276B285357E127512A08F1
:1005500054E328C130F127C12FF1326B140E316FF3
:10056000000199DF02C02EF101C02DF1BBC030F1B6
:10057000BAC02FF10101326B0A0E316F00018BDF1F
:1005800002C003F0015001012D2702502E232EC17D
:1005900031F12DC130F1030E336F326B00018CDF6E
:1005A00000C02DF103C02EF103C030F100C02FF1C7
:1005B0000001CFDE03C02CF102C02BF101C02AF1F3
:1005C00000C029F101012735026E2835036E02367D
:1005D0000336FC0E021602500A0FE96E000E0320CD
:1005E000EA6E29C1EFFF2AC1ECFF2BC1ECFF2CC141
:1005F000ECFF272BD8B4282BA7D70001B0DDBA2BEE
:10060000D8B4BB2B01012F6B0001EEDE010104D039
:100610000001BB6BBA6B0101000132EF06F0BB5168
:10062000020840E301012F6B000177DE03C02AF1CD
:1006300002C029F101C028F100C027F101012A53AD
:1006400010E129530EE10001C7510101285D28E3A3
:1006500008E127510001C65DD8A002D0010120D0D9
:100660000101BBC030F1BAC02FF1000172DE03C03E
:100670002AF102C029F101C028F100C027F103C00E
:100680002EF102C02DF101C02CF100C02BF1DFDDF5
:10069000BA2BD8B4BB2B01012F6B0001A5DE0101E1
:1006A00004D00001BB6BBA6B0101000136EF06F00C
:1006B0000101356B366B010E376FDA6AD96A3A6F12
:1006C0002D0E396F010EEA6E310EE96E3AC1E2FF6E
:1006D00039C1E1FF37C138F1D890E550EE02F3504F
:1006E0003523F4503623382FF7D735C1DEFF36C116
:1006F00035F1366BD8B0362B392BD8B43A2B372B93
:1007000037510508DFE1000199EF03F009C030F12E
:1007100008C02FF107C02EF106C02DF1410E0101D6
:10072000346FC60E336F4E0E326F6D0E316F000197
:10073000BFD7390E01010024066E300E0120076E6E
:10074000000E0220086E000E0320096E08C000F0A3
:1007500009C001F0026A036A09C02FF108C02EF136
:1007600009C031F108C030F17F0E336F32690001EA
:10077000A3DE00C001F003C002F0120001012C6BE7
:100780002B6B2A6B296B286B2A0E276F275302E1EC
:10079000285346E02735026E2835036E02360336AD
:1007A000FC0E021602500A0F016E000E032201C059
:1007B0002DF103C02EF1010E275D2F6F000E285979
:1007C000306F2F35026E3035036E02360336FC0E65
:1007D000021602500A0FE96E000E0320EA6EEFCFF8
:1007E00000F0ECCF01F0ECCF02F0ECCF03F003C04F
:1007F00032F102C031F101C030F100C02FF12EC141
:10080000EAFF2DC1E9FF00C0EFFF01C0ECFF02C00D
:10081000ECFF03C0ECFF2751D8B428072707B6D751
:10082000286B276B285315E12751020812E32BC1CF
:100830002CF12AC12BF129C12AF1296B000166DFB5
:1008400001500101291302502A13272BD8B4282B59
:10085000E9D72CC10DF02BC10CF02AC10BF029C136
:100860000AF0000155EF04F001012F6B000155DD86
:1008700003C02AF102C029F101C028F100C027F10C
:10088000D890C635026EC735036E02C001F0010173
:100890002A5309E1295307E10350285D0CE303E1E2
:1008A0002751015C08E2000169D759DC01012F6B77
:1008B00000019ADD010100013AEF06F02A0E010164
:1008C000376F37532CE03751040DF350036A0A0F8A
:1008D000016E000E032201C038F103C039F1010E90
:1008E000375D040DF350036A0A0FE96E000E032012
:1008F000EA6EEFCF00F0ECCF01F0ECCF02F0ECCFDE
:1009000003F039C1EAFF38C1E9FF00C0EFFF01C0C1
:10091000ECFF02C0ECFF03C0ECFF3707D2D736C1B3
:100920000DF035C10CF034C10BF033C10AF00001F9
:10093000120001012F6B0001F0DC03C032F102C094
:1009400031F101C030F100C02FF10101325310E14B
:1009500031530EE10001C7510101305D52E308E15E
:100960002F510001C65DD8A002D001014AD001017B
:100970000001BB5303E1BA51050802E2BB6BBA6B3D
:10098000BBC031F1BAC030F10101336B060E326FDA
:10099000000192DD00C02FF1010103C030F130539E
:1009A0000FE12F5102080CE32EC136F12DC135F1B4
:1009B0002CC134F12BC133F1000180DF18D00101CB
:1009C000376B386B396B00016CEC00F003C032F10F
:1009D00002C031F101C030F100C02FF103C036F187
:1009E00002C035F101C034F100C033F167DFAFEC74
:1009F00000F0BA2BD8B4BB2B01012F6B0001F4DC43
:100A000001010001120001012F6B000186DC03C00F
:100A100032F102C031F101C030F100C02FF101010B
:100A2000325310E131530EE10001C7510101305D35
:100A300047E308E12F510001C65DD8A002D00101B3
:100A40003FD001010001BB5303E1BA51010802E2AA
:100A5000BB6BBA6BBA51010B01012F6F306B2F5377
:100A60000EE130530CE12EC136F12DC135F12CC110
:100A700034F12BC133F1000121DF18D00101376BB4
:100A8000386B396B00016CEC00F003C032F102C02E
:100A900031F101C030F100C02FF103C036F102C0C6
:100AA00035F101C034F100C033F108DFAFEC00F0E4
:100AB000BA2BD8B4BB2B01012F6B000195DC0101CF
:100AC0000001BAEF06F001012F6B000126DC03C024
:100AD00032F102C031F101C030F100C02FF101014B
:100AE000325310E131530EE10001C7510101305D75
:100AF00051E308E12F510001C65DD8A002D00101E9
:100B000049D001010001BB5303E1BA51020802E2DE
:100B1000BB6BBA6BBBC031F1BAC030F10101336BB2
:100B2000030E326F0001C8DC00C02FF1010103C0C9
:100B300030F12F530EE130530CE12EC136F12DC1AF
:100B400035F12CC134F12BC133F10001B7DE18D0DF
:100B50000101376B386B396B00016CEC00F003C09E
:100B600032F102C031F101C030F100C02FF103C0F9
:100B700036F102C035F101C034F100C033F19EDE20
:100B8000AFEC00F0BA2BD8B4BB2B01012F6B0001E6
:100B90002BDC01010001D5EF06F0C551000A03E08E
:100BA000010A03E004D0C98F02D0C99F00D0C0A1C0
:100BB00002D0C0A3FBD0BEC000F0BF51036E02E163
:100BC00000523AE0035003E1010E005C3AE00350AA
:100BD00003E1020E005C3AE0035003E1030E005C07
:100BE0003AE0035003E1040E005C3AE0035003E1F5
:100BF000050E005C39E0035003E1060E005C38E0AE
:100C0000035003E1070E005C37E0035003E1080ED8
:100C1000005C4DE0035003E1090E005C63E003500B
:100C200004E10A0E005CD8B48CD0035004E10B0E32
:100C3000005CD8B4A1D0BAD042EF01F0C081C0931B
:100C4000B5D05BEF01F0C081C093B0D074EF01F07C
:100C5000C081C093ABD0C0830BEF02F0C081A6D09F
:100C6000C0834DD4C081A2D0C083D9D4C0819ED0CE
:100C7000C083FAD5C0819AD0C08301013769386B2F
:100C8000396B00016CEC00F003C02AF102C029F1BD
:100C900001C028F100C027F103C02EF102C02DF1E0
:100CA00001C02CF100C02BF144DEC0817FD0C08395
:100CB0000101376B3869396900016CEC00F003C041
:100CC0002AF102C029F101C028F100C027F103C0B8
:100CD0002EF102C02DF101C02CF100C02BF129DE54
:100CE000C08164D0C08312DD02C028F101C027F1A9
:100CF00002C031F101C030F1020E0101336F3269DF
:100D000000015CEC02F000C027F103C028F103C031
:100D100030F100C02FF10001A9EC01F003C02AF16D
:100D200002C029F101C028F100C027F103C02EF153
:100D300002C02DF101C02CF100C02BF1FADDC08101
:100D400035D0C0830101376B386B396900016CEC19
:100D500000F003C02AF102C029F101C028F100C04F
:100D600027F103C02EF102C02DF101C02CF100C00B
:100D70002BF149D6C0811AD0C0830101376B386B83
:100D8000396900016CEC00F003C02AF102C029F1BE
:100D900001C028F100C027F103C02EF102C02DF1DF
:100DA00001C02CF100C02BF18ED6C0819A0ED56FF8
:100DB0000B0ED66FEFEF09F01200D3EF08F0010E23
:100DC000BE250101276F000E0001BF210101286F20
:100DD000285303E127510B0807E200012BEC00F038
:100DE000BF6BBE6B07D0010100012BEC00F0BE2BE6
:100DF000D8B4BF2BC091FEEF06F0E1D7DDEF08F0CD
:100E0000BE5308E1BF5306E12BEC00F0BF6B0B0EA5
:100E1000BE6F06D02BEC00F0BE51D8B4BF07BE07A2
:100E2000C09114EF07F0ECD7E7EF08F0C7510B08BB
:100E300008E303E1C651B70804E3320EC627000EEB
:100E4000C72324EF07F0F2D7F1EF08F0C75303E10F
:100E5000C651310804E2320EC65F000EC75B32EFA6
:100E600007F0F4D7FBEF08F0010EEA6E280EE96EEA
:100E7000EF500DE00A0E016E006A002EFED7012E23
:100E8000FBD75F0E006E002EFED7EF2EF3D71200B9
:100E9000C553D8A491D0C081C0930101376B386984
:100EA000396B00016CEC00F003C02AF102C029F19B
:100EB00001C028F100C027F103C02EF102C02DF1BE
:100EC00001C02CF100C02BF127EC01F0020E010152
:100ED000276FFA0E286F0001C7DF0101272FF9D70E
:100EE000376B386B396B00016CEC00F003C02AF1F2
:100EF00002C029F101C028F100C027F103C02EF182
:100F000002C02DF101C02CF100C02BF127EC01F043
:100F1000020E0101276FFA0E286F0001A5DF010103
:100F2000272FF9D7376B3869396B00016CEC00F06B
:100F300003C02AF102C029F101C028F100C027F145
:100F400003C02EF102C02DF101C02CF100C02BF125
:100F500027EC01F0020E0101276FFA0E286F000145
:100F600083DF0101272FF9D7376B386B396B00010D
:100F70006CEC00F003C02AF102C029F101C028F195
:100F800000C027F103C02EF102C02DF101C02CF1E9
:100F900000C02BF127EC01F0020E0101276FFA0EC1
:100FA000286F000161DF0101272FF9D7010E000131
:100FB000C56FC091C0838FD0C081C09301013769D4
:100FC000386B396B00016CEC00F003C02AF102C0F1
:100FD00029F101C028F100C027F103C02EF102C0A1
:100FE0002DF101C02CF100C02BF127EC01F0020E15
:100FF0000101276FFA0E286F000136DF0101272F4C
:10100000F9D7376B386B396B00016CEC00F003C01B
:101010002AF102C029F101C028F100C027F103C064
:101020002EF102C02DF101C02CF100C02BF127ECF4
:1010300001F0020E0101276FFA0E286F000114DF84
:101040000101272FF9D73769386B396B00016CEC38
:1010500000F003C02AF102C029F101C028F100C04C
:1010600027F103C02EF102C02DF101C02CF100C008
:101070002BF127EC01F0020E0101276FFA0E286F09
:101080000001F2DE0101272FF9D7376B386B396B7E
:1010900000016CEC00F003C02AF102C029F101C08C
:1010A00028F100C027F103C02EF102C02DF101C0CC
:1010B0002CF100C02BF127EC01F0020E0101276F8B
:1010C000FA0E286F0001D0DE0101272FF9D70001A9
:1010D000C56BC091C0836EEF08F0DAD605EF09F05A
:1010E000C3531FE1928080B002D0C381C46B92824F
:1010F00080B202D0C383C46B928480B402D0C38513
:10110000C46B928680B602D0C387C46B928880B8C5
:1011100002D0C389C46B928A80BA02D0C38BC46BDD
:1011200036D0C3A107D0928080B002D0C42B02D0A9
:10113000C46BC391C3A307D0928280B202D0C42BE8
:1011400002D0C46BC393C3A507D0928480B402D0ED
:10115000C42B02D0C46BC395C3A707D0928680B6B8
:1011600002D0C42B02D0C46BC397C3A907D0928806
:1011700080B802D0C42B02D0C46BC399C3AB07D0D4
:10118000928A80BA02D0C42B02D0C46BC39BC451D4
:1011900005083CE2C3A108D0928080B002D0D78F6E
:1011A000FBD7D79F0AD6C36BC3A308D0928280B265
:1011B00002D0D78FFBD7D79F20D6C36BC3A508D04B
:1011C000928480B402D0D78FFBD7D79F2CD6C36B25
:1011D000C3A708D0928680B602D0D78FFBD7D79FFF
:1011E00032D6C36BC3A908D0928880B802D0D78FFB
:1011F000FBD7D79F36D6C36BC3AB08D0928A80BAD1
:1012000002D0D78FFBD7D79F68D7C36BE00EDC6FB8
:10121000100EDD6FEFEF09F01200E86BE8512A08BD
:1012200014E3E851040DF350036A0A0FE96E000E4F
:101230000320EA6EEE52EE52EC6AED52EF6AED5286
:10124000EF6AED52EF6AE82BE9D7AFEC00F077EFE9
:1012500009F0DE8FE86BE85314E1E851040DF35018
:10126000036AB60FE96E000E0320EA6EEE52EE52EC
:10127000EC6AED52EF6AED52EF6AED52EF6AE82B3D
:10128000EAD7DE9F8DEF09F0F86AD09E600ED36E2C
:101290009B8C9B9EB886B8888A0EAF6E000EB06E8F
:1012A000A60EAC6E900EAB6EC150F00BC16E000E70
:1012B0000F01386F396F3A6F776A786A796A046A12
:1012C000056A600ED36E9B8C9B9E7F0E926E000E05
:1012D000936E946EC69A949A94889496200EC66ED5
:1012E000400EC76E929E899E0001C08596D7AFECD6
:1012F00000F0640E0101286F0001B6DDC56BBF6B05
:10130000040EBE6FC36BC26BC16BC091C093C76B41
:10131000320EC66F2BEC00F09CD7C96B750ECB6FED
:10132000300ECA6FCD6B020ECC6F7E0ECE6F000EEC
:10133000CF6FD06BD26B0A0ED16FD46BD36B9A0E7A
:10134000D56F0B0ED66FD76BD96B0A0ED86FDB6BD0
:10135000010EDA6FE00EDC6F100EDD6FDE6BE06BFE
:10136000010EDF6FE26BE16B1C0EE36F000EE46FAA
:10137000C86B050ECD6ECC6AE00ECF6EC00ECE6E81
:101380009E90D890C835006E02EC00F0026E010EFF
:10139000002402EC00F0036E03C0EAFF02C0E9FF84
:1013A000EFCF02F0E92AEFCF00F0ECCF01F0EC2A0A
:1013B000EFCF03F002E1EC2AED52EC50015C10E1BA
:1013C0000050035C0DE1ED52EE6AEF6A02BE08D0F8
:1013D000EC52ECCFFAFFED52EFCFE8FFF96E0001CF
:1013E000C82B040EC85DCDE1C86B9EB0C5D7FDD734
:0413F000C8690300C5
:020000040030CA
:0E00000000F8183C003F81000FC00FE00F40D9
:00000001FF
;PIC18F25K22
;CRC=C061  CREATED="08-Nov-14 16:10"
