:1000000090315F2B00000B004C34233453342334E5
:100010005A342334613423342B00E501E508031DF1
:100020002828650DF700F70DFC30F70577080A3E24
:100030008400203085000318850A013080070131D3
:100040000030803D0131803D0131803DE50A0E28C0
:100050000C302A00E6000030E70090312000A82F85
:100060000800D434ED327210A534A01EA012CC3A90
:100070008A060000D030743A65396E10D037F334F8
:10008000F4346F37A01EA012CC3A8A060000D0309C
:10009000743A65396E10D037F334F4346F37A01EDC
:1000A000A012CC3A8A060000D030743A65396E103E
:1000B000D037F334F4346F37A01EA012CC3A8A063E
:1000C0000000D030743A65396E10D037F334F43410
:1000D0006F372018AC1820103D10252675162536D0
:1000E00075050D00C432EC307910D434ED32A036F1
:1000F00073103D10253675050D00C432EC307910B3
:10010000D434ED32A03673103D10253675050D0040
:10011000D43A7237693767106F372028EF3B65395B
:10012000203A6F10CC22C4398A060000C7376937DD
:100130006710F437A029EC3265388A060001D73001
:10014000EB32A02A70050D002B00E5016508013C8B
:10015000031CB7280310650D0E3E84002030850077
:100160000318850A800101318001E50AA6282000D4
:1001700008003908003A0319C128013A0319C428B4
:10018000C8282A00CC17C9282A00CC13C928200067
:100190002A002000B9080319E928013032072B0092
:1001A000E50000302000333D2B00E600E608031D8B
:1001B000DD286508153C0318E3282000B301B201CF
:1001C000A420E8282B002000B20A0319B30AA420B7
:1001D0003410B9302A00D1000030D2009031200014
:1001E000A82F08000B082B00EC008B132300951799
:1001F0001514000000000318232913087F392B0071
:10020000ED00230011082B00EE00230012082B0044
:10021000EF006D082000111E0B2923009A002B000F
:100220006E08230091002B006F08230092009517A1
:100230001514000000002B00EB0B1F2921292300BF
:10024000232945292300130D140D7F392B00ED00C0
:10025000230011082B00EE00230012082B00EF00F2
:100260006D082000111E322923009A002B006E0811
:10027000230091002B006F0823009200910A0319BC
:10028000920A03102B00EB0BF628EC1B8B172000B7
:10029000080005082C00A6000408A5002B006C0E21
:1002A000F0382C00A100A107E23EA200323EA400DB
:1002B0002B006C080F392C00A207A207A407E93E07
:1002C000A300A307A3072B006B0E0F392C00A30775
:1002D000A407A30DA40DA409A40D2B006B080F39CE
:1002E0002C00A407A10D0730A0000A30A407A30327
:1002F000031C7629A307A203031C7A29A207A103E2
:10030000031C7E29A107A003031C82290630850057
:10031000203084000730250525138407243004028B
:10032000031925170008F700031D9E29251B9E2988
:10033000251AA929A5199E292030A129A51525121C
:100340003030F70777082000111EA42923009A00F7
:100350002C000131251F8E29200008002C002608C2
:10036000AC01AB01AA01A9002A08AC002908AB0026
:10037000A901AA012708B101B001AF01AE00300800
:10038000FA002F08F9002E08F800F7017708A904F1
:100390002E08AA042F08AB043008AC042808F70084
:1003A000F801F901FA0128082904F70078082A045D
:1003B000F80079082B04F9007A082C04FA002000D0
:1003C000080010302C00AC00F701FA01A90CA80CB1
:1003D000031CF0292A08F7070318FA0A2B08FA0762
:1003E000FA0CF70CF90CF80CAC0BE629200008000D
:1003F000F801F901F701FA012C002D08031D032A69
:100400002C0803191D2A1030AE000310AA0DAB0DE5
:10041000F70DFA0D2D087A02031D102A2C08770219
:10042000031C192A2C08F702031CFA032D08FA02F0
:100430000314F80DF90DAE0B052A20000800023058
:100440002C00A902031C312A23308500C930840006
:1004500000080319312A2F2A2D2A2E2A0000800B8A
:100460002C2A200008002C00A101A001A008031DD7
:10047000152BA108031D152B200DF900210DFA00E5
:10048000F90DFA0DFC30F9057908063E840020309C
:100490007A3D85000008A800013FA900023FAA009C
:1004A000033FAB002808A200A301200DF900210D95
:1004B000FA00F90DFA0DFC30F9057908063E8400C2
:1004C00020307A3D85000008A800013FA900023FC6
:1004D000AA00033FAB002908A8002A08A9002B089E
:1004E000AA00AB012808A400A501200DF900210DE8
:1004F000FA00F90DFA0DFC30F9057908063E840082
:1005000020307A3D85000008A800013FA900023F85
:10051000AA00033FAB002A08A8002B08A900AA01E3
:10052000AB012808A600A7012308A9002208A800FB
:10053000AB0120003C082C00AA002000E121790832
:100540002C00A9007808A8002908AB002808AA00F8
:10055000AD010A30AC002000F8217808FF3C2C00E7
:10056000A2000030A3007908A33B2508A9002408B5
:10057000A800AB0120003C082C00AA002000E121CB
:1005800079082C00A9007808A8002908AB002808E1
:10059000AA00AD010A30AC002000F8217808FF3C29
:1005A0002C00A4000030A5007908A53B2708A9006D
:1005B0002608A800AB0120003C082C00AA0020005F
:1005C000E12179082C00A9007808A8002908AB00CF
:1005D0002808AA00AD010A30AC002000F8217808F4
:1005E000FF3C2C00A6000030A7007908A73B2400A0
:1005F00011082C00220824009100140C031CFD2A71
:1006000011082C00260824009100140C031C052B53
:1006100011082C00240824009100140C031C0D2B3D
:100620002C00A00A0319A10A362A0230A800FA30C9
:10063000A90020001F222C00A80B172B2000080067
:100640002B00EE01EE08031D3B2B6E0DF700F70D9E
:10065000FC30F7057708063E84002030850003183B
:10066000850A6A0880006B08813F6C08823F6D082C
:10067000833FEE0A222B2000332208002C00A00822
:10068000031D5C2B200DF700F70DFC30F7057708F4
:100690000A3E8400203085000318850A0008F70010
:1006A00001310008F80001310008F90001310008AB
:1006B000FA003D31602B602BF701F801F901FA01D6
:1006C000200008002B006E08FA01F7007A08031DCD
:1006D0006E2BF70820000319812B2B007A08031DCD
:1006E000772B0130770220000319942B2B007A0816
:1006F000031D802B0230770220000319A72B2B004B
:10070000B92B2B00FA016D08FF3C2C00A000003033
:10071000A1007A08A13B2B006D082C00A200A301C8
:10072000A501A4012B00B92B2B00FA016D08FF3C99
:100730002C00A2000030A3007A08A33B2B006D0818
:100740002C00A400A501A101A0012B00B92B2B00B6
:10075000FA016D08FF3C2C00A4000030A5007A08C7
:10076000A53B2B006D082C00A000A101A301A20154
:100770002B002C002008A6002208A7002408A800AF
:100780002000AE2108002C00A008031DDA2B200D4C
:10079000F700F70DFC30F70577080A3E840020309B
:1007A00085000318850A8001013180010131800133
:1007B000013180012000080025082C00A300200042
:1007C00024082C00A200200023082C00A1002000F7
:1007D00022082C00A0004130A700C630A6004E30F1
:1007E000A5006D30A4002030AC00A801A901AA0129
:1007F000AB012308FA002208F9002108F8002008BC
:10080000F7000310771C122C2408A80725080318EA
:10081000250FA90726080318260FAA07270803187B
:10082000270FAB07AB0CAA0CA90CA80CFA0CF90CFF
:10083000F80CF70CAC0B012C7A08A3007908A20085
:100840007808A1007708A000393020072000A20016
:1008500030302C00213D2000A30000302C00223D30
:100860002000A40000302C00233D2000A500240817
:10087000F7002508F800F901FA0125082C00A2006C
:100880007708A1002208AB002108AA007F30AD0044
:10089000FF30AC002000F8217708F8007A08F90052
:1008A00008002C00A801A8080319962C280DF700B1
:1008B000F70DFC30F7057708063EF8002030FA0007
:1008C0000318FA0A7808A9007A08AA000130280259
:1008D000F700F70DF70DFC30F7057708063E8400AA
:1008E000203085000318850A0008F7000131000850
:1008F000F80001310008F90001310008FA003D312B
:100900007A08AE007908AD007808AC007708AB0033
:100910002A088500290884002B0880002C08813FC4
:100920002D08823F2E08833FA803532C2708200060
:10093000A9002C0026082000A8002C002508200073
:10094000A7002C0024082000A60008002C00A0010D
:1009500020003E237A082C00A3007908A200780822
:10096000A1007708A000A308031DC92CA208031D3D
:10097000C92C20003B082C002102031C202D031D44
:10098000C92C200820003A02031CC82C2C00202D62
:100990002C002000AF08031DD12C2E08053C0318A5
:1009A000D32CAF01AE012F082C00AB0020002E0885
:1009B0002C00AA00AD010630AC002000F821770819
:1009C0002C00A0007A08A100A108031DFF2C20081C
:1009D000023C031CFF2C2B006C082C00A7002B00F2
:1009E0006B082C00A6002B006A082C00A5002B0029
:1009F00069082C00A40020005124172D2C00A6010A
:100A0000A701A8012000AE217A082C00A3007908D4
:100A1000A2007808A1007708A0002308A7002208F8
:100A2000A6002108A5002008A4002000512433229C
:100A3000AE0A0319AF0A2C00A0012000C3232C002A
:100A4000200008002C00A00120003E237A082B0083
:100A5000EB007908EA007808E9007708E800EB087D
:100A6000031D452DEA08031D452D20003B082B00E2
:100A70006902031CF32D031D452D680820003A026E
:100A8000031C442D2B00F32D2B002000B008031D68
:100A9000672DB108031D672D01302E072B00E800DC
:100AA000003020002F3D2B00E900E908031D5E2DDA
:100AB0006708680203185E2D2000672D2000B10131
:100AC0000130B0002E080319AF03AE038B2D300B9D
:100AD000782DB108031D782DAE08031D782DAF08C1
:100AE000031D782DB101B001AE0A0319AF0A8B2D99
:100AF000B008031D822DB108031D822DAE0A031913
:100B0000AF0A8B2D300B8B2DB108031D8B2D2E08BA
:100B10000319AF03AE032E0DF9002F0DFA00F90DE6
:100B2000FA0DFC30F90579082B006507F800660816
:100B3000FA3D780884007A0885000008E800013151
:100B40000008E90001310008EA0001310008EB006B
:100B50003D316B082C00A7002B006A082C00A60072
:100B60002B0069082C00A5002B0068082C00A400AD
:100B700020005124613023009100003092000310C6
:100B800018302B00EB002000F220103084002F08DA
:100B90002B00EC0020002E082B00EB002000492148
:100BA0002C30111ED12D23009A001030840020001B
:100BB00031082B00EC00200030082B00EB00200057
:100BC00049210A30111EE22D23009A000D30200029
:100BD000111EE82D23009A00200033222C00A001D2
:100BE0002000C3232B002000080043346137E73482
:100BF000EE332028613AF4327237203A6F102526FE
:100C000075050D000B082B00E5008B1323009517CD
:100C100015140000000013087F3903194C2E2B0017
:100C2000E600230011082B00E700230012082B0028
:100C3000E80066082000111E1B2E23009A002B00DE
:100C40006708230091002B00680823009200951785
:100C5000151400000000130D140D7F3903194C2EDC
:100C60002B00E600230011082B00E70023001208E8
:100C70002B00E80066082000111E3C2E23009A007D
:100C80002B006708230091002B00680823009200C6
:100C9000910A0319920A072E2B00E51B8B172000DF
:100CA000080023308500B730840000080319652E42
:100CB0000A30F800F701F70B5B2EF80B5A2E5F3065
:100CC000F700F70B612E800B582E08003414B41077
:100CD0002C00A601A701A8012000AE217A082B0054
:100CE000E9007908E8007808E7007708E600690875
:100CF000ED006808EC006708EB006608EA002000D9
:100D0000202364302B00E700200051262B00E50152
:100D100020003C082B0065020318B42E650DF70077
:100D2000F70DFC30F7057708063EF8002030FA0092
:100D30000318FA0A7808E6007A08E7002C00A601F2
:100D4000A701FF30A8002000AE212B006708850016
:100D500066088400770880007808813F7908823F20
:100D60007A08833FE50A882E2000332202302B00C8
:100D7000E6009630E700200051262B00E60BB92E46
:100D800020003410B4140800D33C733AE536A0298F
:100D9000F430723A65328A060001533A6139F4340C
:100DA000EE332029D42753050D002A00EB01EB0870
:100DB000031DEF2E6B0DF700F70DFC30F7057708DC
:100DC000063E8400203085000318850A8001013129
:100DD00080010131800101318001EB0AD72E200012
:100DE00033229031082F2A00E117EB01EB08031D95
:100DF0000E2F6B0DF700F70DFC30F70577080A3E54
:100E00008400203085000318850A800101318001AB
:100E10000131800101318001EB0AF62EE11390319E
:040E200020002F2F50
:10100000640034182928F53023009100053092003F
:10101000031014302B00EB0080312000F2208831C7
:101020001030840033082B00EC00200032082B0025
:10103000EB0080312000492188310A30111E1E2822
:1010400023009A000D302000111E242823009A004E
:101050002000390803193028013A031933283728AA
:101060002A00CC1738282A00CC13382820002A0060
:101070002000341C3D28B41C2A2E3208F700330807
:10108000FA007A08031D4728F7080319DB287A08B5
:10109000031D4E28013077020319FC287A08031D2E
:1010A00055280230770203191D297A08031D5C2890
:1010B0000330770203193E297A08031D63280430A0
:1010C00077020319B7297A08031D6A2805307702C9
:1010D00003198B2A7A08031D712806307702031939
:1010E0000D2B7A08031D7828073077020319CF2BC0
:1010F0007A08031D7F28083077020319F02B7A083D
:10110000031D8628093077020319112C7A08031D64
:101110008D280A30770203194C2C7A08031D942875
:101120000B3077020319E32C7A08031D9B280C303F
:1011300077020319882D7A08031DA2280D30770243
:101140000319972D7A08031DA9280E307702031979
:10115000A72D7A08031DB0280F3077020319B72D89
:101160007A08031DB728103077020319C52D7A08B5
:10117000031DBE28113077020319D22D7A08031DF2
:10118000C528123077020319E02D7A08031DCC28F8
:10119000133077020319EE2D7A08031DD32814307B
:1011A00077020319FC2D7A08031DDA28153077021F
:1011B00003190A2E2A2EFF302C00A600A701A80131
:1011C00080312000AE2188317A082B00E8007908B0
:1011D000E7007808E6007708E5006808ED00670892
:1011E000EC006608EB006508EA008031200020234F
:1011F00088313414B4102A2E2C00A601FF30A70029
:10120000A80180312000AE2188317A082B00E80047
:101210007908E7007808E6007708E5006808ED003F
:101220006708EC006608EB006508EA0080312000E2
:10123000202388313414B4102A2E2C00A601A701D3
:10124000FF30A80080312000AE2188317A082B00C1
:10125000E8007908E7007808E6007708E500680804
:10126000ED006708EC006608EB006508EA008031D5
:101270002000202388313414B4102A2EB4142F08EF
:10128000023C031CB1292C00A001803120003E2328
:1012900088317A082B00E8007908E7007808E60032
:1012A0007708E500E808031D5F29E708031D5F29AB
:1012B000E608031D5F296508C83C0318AF293A30CA
:1012C0002300910000309200031013302B00EB003C
:1012D00080312000F2208831103084002F082B004C
:1012E000EC0020002E082B00EB008031200049216B
:1012F00088310A30111E7A2923009A000D3020000F
:10130000111E802923009A0020002F082B00EE00D8
:1013100020002E082B00ED00803120006223883150
:101320007A082B00E8007908E7007808E6007708DB
:10133000E5006808ED006708EC006608EB0065084A
:10134000EA008031200020238831AE0A0319AF0A59
:101350002C00A00180312000C32388312B00B42948
:101360002000AF01AE012B00200034142A2EB4144B
:101370002F08023C031C852A2C00A001803120008C
:101380003E2388317A082B00EE007908ED007808BA
:10139000EC007708EB00EE08031DE129ED08031DC2
:1013A000E12920003B082B006C02031C832A031D4B
:1013B000E1296B0820003A02031CE0292B00832A54
:1013C0002B004730230091000030920003101330AF
:1013D0002B00EB0080312000F22088311030840097
:1013E0002F082B00EC0020002E082B00EB00803192
:1013F0002000492188310A30111EFC2923009A005F
:101400000D302000111E022A23009A002B00E60155
:10141000E501E508031D752AE608031D752A66081F
:101420002C00A9002B0065082C00A800AB0114308B
:10143000AA0080312000E121883179082B00EC00DE
:101440007808EB0020002F082C00A90020002E08AF
:101450002C00A800AB010A30AA0080312000E12155
:1014600088317908FA0078082B00EB077908EC3D01
:101470006C082C00AB002B006B082C00AA0003307A
:10148000AD00AC0180312000F821883177082B00B5
:10149000EB007A08EC00EE006B08ED0080312000D4
:1014A000622388317A082B00EA007908E90078087D
:1014B000E8007708E700650DF900660DFA00F90D00
:1014C000FA0DFC30F9057908063E840020307A3D9B
:1014D0008500670880006808813F6908823F6A08C4
:1014E000833FE50A0319E60A092A803120003322E6
:1014F0008831AE0A0319AF0A2C00A0018031200008
:10150000C32388312B00882A2000AF01AE012B00B5
:10151000200034142A2EB4142F08023C031C072B7D
:101520002C00A001803120003E2388317A082B0056
:10153000E8007908E7007808E6007708E500E808A1
:10154000031DB52AE708031DB52A20003B082B0020
:101550006602031C052B031DB52A650820003A020C
:10156000031CB42A2B00052B2B00543023009100C0
:1015700000309200031013302B00EB00803120006C
:10158000F2208831103084002F082B00EC0020005E
:101590002E082B00EB0080312000492188310A30D1
:1015A000111ED02A23009A000D302000111ED62AC9
:1015B00023009A0020002F082B00EE0020002E08A8
:1015C0002B00ED0080312000622388317A082B0047
:1015D000E8007908E7007808E6007708E500680881
:1015E000ED006708EC006608EB006508EA00803152
:1015F000200020238831AE0A0319AF0A2C00A00175
:1016000080312000C32388312B000A2B2000AF013A
:10161000AE012B00200034142A2EB4142C00A0019B
:10162000803120003E2388317A082B00E8007908B9
:10163000E7007808E6007708E500031020003A0D7F
:10164000F9003B0DFA007908F8002B00E808031DAB
:10165000362BE708031D362B7A086602031CCC2BB9
:10166000031D362B650878020318CC2BEA01E9012B
:10167000E801E701E601E501E508031D422BE60864
:101680000319962B650DF900660DFA00F90DFA0D98
:10169000FC30F9057908063EF8002030FA3D78085C
:1016A0002C00A0007A08A10001302B0065022C005C
:1016B000A20000302B00663B2C00A300220DF90095
:1016C000230DFA00F90DFA0DFC30F9057908063EF4
:1016D000840020307A3D85000008F70001310008C1
:1016E000F80001310008F90001310008FA003D312D
:1016F0007A08A5007908A4007808A3007708A2005A
:101700002108850020088400220880000131230878
:1017100080000131240880000131250880003D311E
:101720002B0065080319E603E5033C2BE601E50100
:10173000E608031DB32B6508023C031CB32B6908A4
:10174000EA006808E9006708E800E7018031200046
:10175000DC23883178082B00E7047908E804E50ADF
:101760000319E60A982B6A082000A9002B006908D3
:101770002000A8002B0068082000A7002B006708A5
:101780002000A6008031332288312C00A001803156
:101790002000C32388312B00200034142A2EB414D7
:1017A000FF302C00A600A701A80180312000AE2147
:1017B00088317A082B00E8007908E7007808E6000D
:1017C0007708E5006808EC006708EB006608EA00A7
:1017D0006508E90080312000A624883134142A2EBF
:1017E000B4142C00A601FF30A700A800803120000F
:1017F000AE2188317A082B00E8007908E7007808E4
:10180000E6007708E5006808EC006708EB0066086A
:10181000EA006508E90080312000A62488313414EC
:101820002A2EB4148031DC23883179082B00E6009D
:101830007808E50066082C00AB002B0065082C003A
:10184000AA000230AD00FF30AC0080312000F8214A
:10185000883177082B00E5007A08E600EE0065087D
:10186000ED0080312000622388317A082B00E800E7
:101870007908E7007808E6007708E5006808EC00DA
:101880006708EB006608EA006508E900803120007F
:10189000A624883134142A2EB4142C00A601A701E2
:1018A000FF30A80080312000AE2188317A082B005B
:1018B000E8007908E7007808E6007708E50068089E
:1018C000EC006708EB006608EA006508E9002C00F8
:1018D000A001803120003E2388317A082C00A3002B
:1018E0007908A2007808A1007708A000A308031DCA
:1018F0008C2CA208031D8C2C20003B082C002102FC
:10190000031CE02C031D8C2C200820003A02031C31
:101910008B2C2C00E02C2C002000AF08031D942CF5
:101920002E08013C0318962CAF01AE012E08013998
:101930002C00A000A101A008031DB72CA108031DC5
:10194000B72C2B006C082C00A7002B006B082C0078
:10195000A6002B006A082C00A5002B0069082C00AB
:10196000A4008031200051248831D32C2C00A60102
:10197000A701A80180312000AE2188317A082C000F
:10198000A3007908A2007808A1007708A000230826
:10199000A7002208A6002108A5002008A400803185
:1019A000200051248831803133228831AE0A031956
:1019B000AF0A2C00A00180312000C32388312C0005
:1019C000200034142A2EB4142C00A601A701FF30E5
:1019D000A80080312000AE2188317A082B00E80071
:1019E0007908E7007808E6007708E5006808EC0069
:1019F0006708EB006608EA006508E9002C00A00112
:101A0000803120003E2388317A082C00A300790819
:101A1000A2007808A1007708A000A308031D232DC9
:101A2000A208031D232D20003B082C002102031CCB
:101A3000852D031D232D200820003A02031C222D92
:101A40002C00852D2C002000AF08031D2B2D2E0807
:101A5000023C03182D2DAF01AE012F082C00AB0066
:101A600020002E082C00AA00AD010330AC0080310C
:101A70002000F821883177082C00A0007A08A10006
:101A8000A008031D5C2DA108031D5C2D2B006C0814
:101A90002C00A7002B006B082C00A6002B006A0866
:101AA0002C00A5002B0069082C00A4008031200028
:101AB00051248831782D2C00A601A701A80180317E
:101AC0002000AE2188317A082C00A3007908A200FA
:101AD0007808A1007708A0002308A7002208A60024
:101AE0002108A5002008A40080312000512488315D
:101AF000803133228831AE0A0319AF0A2C00A001CD
:101B000080312000C32388312C00200034142A2E79
:101B1000B41420302B00E600E50020003D082B0027
:101B2000E700803120002225883134142A2EB41495
:101B300020302B00E6004830E50020003E082B0056
:101B4000E700803120002225883134142A2EB41475
:101B500020302B00E6007030E50020003F082B000D
:101B6000E700803120002225883134142A2EB41455
:101B700021302B00E6001030E5007008E7008031CE
:101B800020002225883134142A2EB41422302B0050
:101B9000E600E5017108E700803120002225883148
:101BA00034142A2EB41422302B00E600D030E50085
:101BB0007208E700803120002225883134142A2E53
:101BC000B41423302B00E6002830E5007308E7004A
:101BD000803120002225883134142A2EB414233079
:101BE0002B00E6003430E5007408E7008031200067
:101BF0002225883134142A2EB41423302B00E60019
:101C00004030E5007508E70080312000222588314A
:101C100034142A2EFF302C00A600A700A800803123
:101C20002000AE2188317A082B00E8007908E7000F
:101C30007808E6007708E5006808ED006708EC0022
:101C40006608EB006508EA00803120002023883117
:101C50003414B41000302A00D8000830D900903174
:061C60002000A82F08007F
:10200000B708031D2E2821000C1420000C180A28E4
:102010003714B80121008C1420008C181128B71433
:10202000B80121000C1520000C1918283715B8012B
:1020300021008C1520008C191F28B715B80121002C
:102040000C1620000C1A26283716B80121008C1611
:1020500020008C1A2D28B716B8017028371C392893
:1020600021000C1420000C183728B80A3928B801B0
:102070003710B71C442821008C1420008C184228EB
:10208000B80A4428B801B710371D4F2821000C1595
:1020900020000C194D28B80A4F28B8013711B71D78
:1020A0005A2821008C1520008C195828B80A5A2863
:1020B000B801B711371E652821000C1620000C1A34
:1020C0006328B80A6528B8013712B71E70282100A6
:1020D0008C1620008C1A6E28B80A7028B801B71226
:1020E0003808053C0318562B371CEE2821000C1429
:1020F00020000C187F282A00DA17200076282A00F2
:10210000DA13200034199E28883023009100003013
:102110009200803120000226903121008C13220091
:102120008C132000341564302C00A900803120006D
:102130001F229031803133229031ED2821008C1301
:1021400022008C17200034110B138B138B1BA52836
:1021500027001310C8302C00A900803120001F2256
:1021600090318B1527001114121096302300910026
:10217000003092008031200002269031630064001C
:102180009F30230091000030920080312000022611
:1021900090310000270011102A00DA1721008C135B
:1021A00022008C132000341532302B00E7008031E0
:1021B00020005126903180313322903102302B00A3
:1021C000E5009630E70080312000512690312B0049
:1021D000E50BE1282A00DA132000B701B71C1D29FE
:1021E00021008C1420008C18F9282A00DA1720000E
:1021F000F0282A00DA130130200032072B00E50016
:1022000000302000333D2B00E600E608031D0C29BA
:102210006508153C0318142980312000A420903152
:10222000B301B2011B292B0080312000A420903182
:10223000B20A0319B30A3410B701371D412921002E
:102240000C1520000C1928292A00DA1720001F2954
:102250002A00DA132000B208031D3829B308031D31
:1022600038298031A4209031B3011530B2003F29C4
:102270008031A420903132080319B303B203341023
:10228000B701B71D972921008C1520008C194C2906
:102290002A00DA17200043292A00DA13200039081F
:1022A00003195629013A03198A2994293B08033C4A
:1022B000031C6429031D60293A08E73C031C6429B8
:1022C0000A30BA070030BB3D723023009100003065
:1022D0009200031010302B00EB0080312000F22020
:1022E0009031103084003B082B00EC0020003A08AD
:1022F0002B00EB0080312000492190310A30111E63
:102300007F2923009A000D302000111E852923000B
:102310009A0095293C08093C0318BC0A80316626BE
:10232000903123009529200023002000B701371E9B
:10233000EA2921000C1620000C1AA2292A00DA171B
:10234000200099292A00DA13200039080319AC2942
:10235000013A0319DD29E729BB08031DB3293A080F
:102360000A3C0318B7290A30BA020030BB3B7D3063
:102370002300910000309200031010302B00EB007E
:1023800080312000F2209031103084003B082B0077
:10239000EC0020003A082B00EB008031200049219E
:1023A00090310A30111ED22923009A000D302000EE
:1023B000111ED82923009A00E8293C08013C031C7F
:1023C000BC038031662690312300E82920002300D9
:1023D0002000B701B71E562B21008C1620008C1A46
:1023E000F5292A00DA172000EC292A00DA13200048
:1023F000B908031DA92A3414B4102C00A601FF301B
:10240000A700A80180312000AE2190317A082B006E
:10241000E8007908E7007808E6007708E500680832
:10242000ED006708EC006608EB006508EA00803103
:1024300020002023903102302B00E500FA30E70025
:1024400080312000512690312B00E50B1E2A2C00F4
:10245000A601A701A80180312000AE2190317A08A1
:102460002B00E8007908E7007808E6007708E50027
:102470006808ED006708EC006608EB006508EA00F4
:10248000803120002023903102302B00E500FA300B
:10249000E70080312000512690312B00E50B472AC0
:1024A0002C00A601FF30A700A80180312000AE213A
:1024B00090317A082B00E8007908E7007808E600F8
:1024C0007708E5006808ED006708EC006608EB0097
:1024D0006508EA00803120002023903102302B0073
:1024E000E500FA30E70080312000512690312B00C2
:1024F000E50B712A2C00A601A701A801803120005C
:10250000AE2190317A082B00E8007908E7007808BE
:10251000E6007708E5006808ED006708EC0066084B
:10252000EB006508EA008031200020239031023062
:102530002B00E500FA30E700803120005126903171
:102540002B00E50B9A2A01302000B9003410B41496
:10255000552B3414B410FF302C00A600A701A8019D
:1025600080312000AE2190317A082B00E8007908F4
:10257000E7007808E6007708E5006808ED006708DE
:10258000EC006608EB006508EA008031200020239B
:10259000903102302B00E500FA30E7008031200056
:1025A000512690312B00E50BCC2A2C00A601A70167
:1025B000A80180312000AE2190317A082B00E8007C
:1025C0007908E7007808E6007708E5006808ED007C
:1025D0006708EC006608EB006508EA00803120001F
:1025E0002023903102302B00E500FA30E7008031E3
:1025F0002000512690312B00E50BF52AFF302C00EE
:10260000A600A701A80180312000AE2190317A08F0
:102610002B00E8007908E7007808E6007708E50075
:102620006808ED006708EC006608EB006508EA0042
:10263000803120002023903102302B00E500FA3059
:10264000E70080312000512690312B00E50B1F2B35
:102650002C00A601A701A80180312000AE219031F5
:102660007A082B00E8007908E7007808E600770888
:10267000E5006808ED006708EC006608EB006508F7
:10268000EA00803120002023903102302B00E50049
:10269000FA30E70080312000512690312B00E50B05
:1026A000482B2000B9013410B414B70100302A00BF
:1026B000DF001030E00090312000A82F08000A3021
:1026C000BD00BE002830BF003C30F0003430F100C7
:1026D0001630F2000330F300F400F500F030210072
:1026E000990023009F151F168A309B0000309C0024
:1026F000A6309E0090309D008C018D018E0122003D
:1027000092019101C92E0234003420340034003487
:10271000293400344034FF345C34E0340034FF3476
:102720005334CA340034FF344A34B4340034FF34F0
:1027300040349C340034FF34373486340034FF3462
:102740002E3470340034FF3425345A340034FF34CE
:102750001B3442340034FF3412342C340034FF3440
:10276000093416340034FF340434C03400340334E4
:102770008034FF340034003401340034A034FF349A
:102780000434C034003404348034FF340034003462
:10279000FF340434C034003404348034FF34003453
:1027A0000034FF340434C034003404348034FF3443
:1027B00000340034FF340434C03400343334803403
:1027C000FF3400340034FC34FF3435340034FA3440
:1027D000FC3438340034F834F9343B340034F63403
:1027E000F5343E340034F434F13442340034F134FE
:1027F000ED3446340034EE34E8344A340034EB34FB
:10280000E3344F340034E834DE3454340034E534F7
:10281000D83459340034E134D2345E340034DE34F8
:10282000CC3463340034503401342034DA34C634C8
:1028300069340034D634C0346F340034D334B934FE
:1028400075340034CF34B3347B340034CB34AC34FF
:1028500081340034C734A63487340034C3349F3401
:102860008D340034BF34983494340034BB34913404
:102870009A340034B6348A34A0340034B234833409
:10288000A7340034AE347C34AD340034AA3476340A
:10289000B3340034A6346F34B9340034A23469340C
:1028A000BF3400349F346234C53400349B345C340C
:1028B000CB34003497345634D1340034943450340B
:1028C000D634003490344A34DB340034503401348C
:1028D000A0348D344434E03400348A343F34E53459
:1028E000003487343A34EA34003484343534EE34F6
:1028F000003481343134F23400347F342D34F634F2
:1029000000347D342934F93400347B342634FC34EB
:1029100000344F34FF34FF3400344F34FF34FF347D
:1029200000344F34FF34FF3400344F34FF34FF346D
:1029300000344F34FF34FF3400344F34FF34FF345D
:1029400000344F34FF34FF3400344F34FF34FF344D
:1029500000344F34FF34FF3400344F34FF34FF343D
:1029600000344F34FF34FF3400345034FE34FE342E
:1029700000345034023420345734F434F434003406
:102980006034E734E73400346B34D834D83400345E
:102990007734C734C73400348534B434B4340034A5
:1029A0009334A034A0340034A2348B348B340034FC
:1029B000B134763476340034C03461346134003458
:1029C000CE344D344D340034DB343B343B340034AE
:1029D000E6342A342A340034F0341B341B340034F7
:1029E000F8340F340F340034FD3406340634003428
:1029F000FF34013401340034FF3400340034003437
:102A0000FB34023402340034F63407340734003423
:102A1000EF340E340E34003450340234A034E63433
:102A2000183418340034DB34233423340034CF34E6
:102A3000303430340034C2343E343E340034B434A4
:102A40004E344E340034A5345E345E340034963453
:102A50006F346F34003487348034803400347734FA
:102A60009134913400346834A234A23400345A349E
:102A7000B334B33400344C34C334C33400343F343F
:102A8000D134D13400343334DF34DF3400342834EB
:102A9000EB34EB3400341F34F534F534003418349F
:102AA000FD34FD3400341634FF34FF340034163462
:102AB000FF34FF3400341634FF34FF340034503414
:102AC000033420341634FF34FF3400341634FF341A
:102AD000FF3400341634FF34FF3400341634FF342E
:102AE000FF3400341634FF34FF3400341634FF341E
:102AF000FF3400341634FF34FF3400341634FF340E
:102B0000FF340034DE34213410340034EE34113418
:102B100041340034EE34113485340034EE34113451
:102B2000C6340034E9341134EA340034C734113483
:102B3000EE3400348E341134EE3400345134113418
:102B4000EE3400341C341134EE34003402341934C1
:102B5000EE34003400344234EE3400340034803437
:102B6000EE34003450340334A0340034C034EE3436
:102B700000340034F134EE3400340034FF34D934FE
:102B800000340034FF34A13400340034FF345B34AB
:102B900000340034FF341D3400340034FF3400347A
:102BA00000340034FF34003400340034FF34003487
:102BB00000340034FF34003400340034FF34003477
:102BC00000340034FF34003400340034FF34003467
:102BD00000340034FF34003400340034FF34003457
:102BE00000340034FF34003400340034FF34003447
:102BF00000340034FF34003400340034FF34003437
:102C000000340034FF3400340034503404342034B1
:102C10000034FF34003400340034FF340034003416
:102C20000034FF341F3400340034FF346134003486
:102C30000034FF34AC3400340034FF34E934003461
:102C40000034F034FF3400340034BB34FF3400343B
:102C500000347734FF34003400343434FF3400342B
:102C600002340934FF3400341E340034FF3400349D
:102C700057340034FF34003498340034FF340034C7
:102C8000D5340034FF340034FA340034FB340034DB
:102C9000FF340034D4340034FF3400348E34003434
:102CA000FF34003446340034FF340034123400342E
:102CB00050340434A034F934F934F9340034F134A4
:102CC000F034F1340034E534E234E4340034F334E5
:102CD000EF34F1340034A2349C349E340034203478
:102CE0001B341E3400341D341A341B3400342D348C
:102CF0002C342C3400346234623462340034B33403
:102D0000B334B3340034F334ED34F0340034F334FA
:102D1000D934E6340034C8348034A4340034B334B5
:102D20002D346F340034C3340A3466340034C8346C
:102D3000033465340034A434063455340034793413
:102D40001B344A34003477344F34633400349C34B9
:102D50009034963400340B3405342034B434B13418
:102D6000B23400349F34A0349F3400340034003433
:102D7000FF340A34C034003401348034FF340A3460
:102D8000C034003401348034FF340B34C034003498
:102D90000034133085008330840085171200F7005B
:102DA000003A0319E32E1200F800F81BDB2E0F394E
:102DB000870012008600781B1200781F12001E0088
:102DC000F70BDD2ECE2EF030210099001D3097003C
:102DD0007F3024008C002100951324008D012200F7
:102DE0009D111D129D129C101C1124009512210092
:102DF0008E120E168E112130240095004030940062
:102E000021008C1322008C13200034158031D52E24
:102E1000903180313322903164302B00E7008031D3
:102E2000200051269031B901B3010530B200B7013D
:102E3000B601B5013410B410BB010130BA008031C5
:102E4000A42090310A30BC00C43023009100063029
:102E5000920080312000022690318031F32E903193
:102E6000CD302300910006309200803120000226F0
:102E700090312A00CC017530CE003030CD00D00129
:102E80000230CF00B930D1000030D200D301D501DB
:102E90000A30D400D701D6010030D8000830D9005C
:102EA000DA01DC010A30DB00DE010130DD00003038
:102EB000DF001030E000E101E3010130E200E50154
:102EC000E4010C30E6000030E700F6010530200098
:102ED000980099019601E0309700C03096001110DB
:102EE0000310760DF700803103209031F900013096
:102EF0007707803103209031FA007A08850079083D
:102F000084000008F900840A0008F700840A000819
:102F1000F800840A800A0008FA00031D922F840A30
:102F2000800A8403840A00087802031DA92F770809
:102F30007A02031DA92F84038001840A8001840A78
:102F4000F91BA92F013100088A003F3100088200D7
:102F50002000F60A04307602031D702FF6011118C6
:0A2F60006A2FAF2FFF30F600630068
:020000040001F9
:04000E009439FF1E04
:00000001FF
;PIC16F1788
;CRC=83EA  CREATED="22-Aug-15 22:55"
